:02000000462890
:10000600831603139818092800000328831235085D
:040016009900080045
:0E001A008312031331088A00300882000800A8
:1000280083120313B401320884000008B3003308B4
:10003800003A031929283308B5000320B40A340804
:0C004800320784000008B3001B280800E9
:100054000D208A110A128000840AB00A0319B10A19
:08006400F003031D2A28080027
:10006C008316031398169030831298008316871703
:10007C00071383128C1E45281A08F0003F2808002D
:10008C00203083120313A0005430A1004530A2008D
:10009C005330A3005430A4004530A500A6012030F5
:1000AC00A7004230A8004930A9005430AA002030E3
:1000BC00AB003D30AC003D30AD003130AE00AF0197
:1000CC0088018316881408150814403099001815F7
:1000DC003620081885281A30FB005E30FC006E3084
:1000EC00FD00FD0B7728FC0B7728FB0B7728000015
:1000FC002030B20014200D30B50003206F281A30C8
:10010C00FB005E30FC006E30FD00FD0B8B28FC0B01
:10011C008B28FB0B8B2800002730B20014200D30ED
:08012C00B50003206F2899289B
:02400E004A2F37
:00000001FF
