:040000008A15962A9D
:10000800FF00030E83018316CD000A08CE008A0183
:1000180070088312AE007108AD007208AC00730856
:10002800AB007408AA007508A9007608A80077082C
:10003800A7007808A6007908A5007A08A4007B081C
:10004800A3007C08A2007D08A1000B1D3028ED0A42
:100058000319EE0A0B1181018B1CA3280108003C2F
:10006800F0000030031C013E013CF1006D08F40073
:100078006E08F5008A156B228A117008F300710862
:10008800F400F30DF40D7310F30DF40D73107308F1
:10009800F0007408F100F00DF10D7010F00DF10D85
:1000A80070108A1553228A118030F4009630F500BA
:1000B8001830F6009730F7009B2383162008F400C9
:1000C8002108F5002208F6002308F70052247008DA
:1000D8008316A0007108A1007208A2007308A3008B
:1000E8008312E70A0319E80A00306806031D7E2810
:1000F80096306706031DA2280030F4000030F50092
:100108002030F6008330F70083162008F00021081D
:10011800F1002208F2002308F3009B237008E9008D
:100128007108EA007208EB007308EC00E701E801C7
:100138006D08BC006E08BD00ED01EE018B102E08A5
:10014800F0002D08F1002C08F2002B08F3002A0813
:10015800F4002908F5002808F6002708F700260803
:10016800F8002508F9002408FA002308FB002208F3
:10017800FC002108FD0083164E088A004D0E8300FE
:06018800FF0E7F0E0900CE
:10018E00FB14FB1FD128FF30F300F200F100F0004A
:08019E00FA0DF20CFF3008001D
:1001A6007B15FB1FDD280130F300F201F101F001A0
:0801B600FA0DF20CFF30080005
:0E01BE00F201F101F001F801F3010030080038
:0801CC00FA1FF21300300800D5
:0C01D40000000000000000000000080017
:1001E000243083120313FC00B530FD00FD0BF6280C
:0A01F000FC0BF628000000000800D8
:0E01FA00533083120313FD00FD0B0129080092
:100208007C183A29FC180B297C1959290429A001C2
:100218007208031D2B297108F2007008F100780894
:10022800F000F801A0157208031D2B297108F200CF
:100238007008F100F001A01120167208031D2B2987
:100248007108F200F101A015720803194D29200860
:10025800F302031D031C51290310F21B3A29F80D60
:10026800F00DF10DF20DF30B312951297B1B701C98
:100278005529F81F5529F00A0319F10A0319F20A3A
:10028800031D5529F20CF10CF00CF30A0319592936
:1002980055290130FC00DF205C290230FC00D32006
:1002A8005C290430FC00E6205C290830FC00C720EB
:0402B800000008003A
:0602BC00FB15FF300800F5
:1002C200A0017208031D76297108F2007008F1007E
:1002D200F001A0157208031D76297108F200F101E0
:1002E200A01120167208031984292008F302031DA5
:1002F200031C88290310F21B8C29F00DF10DF20D5D
:10030200F30B7C2988290130FC00DF208F29023081
:0E031200FC00D3208F290430FC00E6200800F8
:1003200083120313FA017308031D7A147708031D5F
:10033000FA147A080319DC29033A0319A7297A1851
:10034000A429F61FDA29D829F21FD829DA29720838
:100350008039FA00F21376088039F6137A06031909
:10036000B5297A080319D829DA29770873020319FD
:10037000BC29031CD029D429760872020319C32989
:10038000031CD029D429750871020319CA29031C3A
:10039000D029D429740870020319DC290318D42940
:1003A000FA080319DA29D829FA080319D829DA2909
:1003B00003140800031008000314031508000800C4
:1003C00083160313ED1BE72983120613E929831211
:1003D000061783166D1BEF2983128612F1298312EB
:1003E00086168316ED1AF72983120612F92983124D
:1003F000061683166D1AFF2983128611012A8312AD
:10040000861583163C18072A83128614092A83123C
:1004100086100615EA2006118316ED19122A83129A
:100420000613142A8312061783166D191A2A8312CB
:1004300086121C2A831286168316ED18222A83122E
:100440000612242A8312061683166D182A2A83128E
:1004500086112C2A8312861583163C18322A8312A1
:100460008614342A831286100615EA200611831694
:0C0470003C1C3C2AF0203D2AFD20080026
:10047C00831603136608F2007208F100F20A67088B
:10048C00F000E70A700884000008F000710884008E
:10049C00700880007108840000080319562A422A4B
:0604AC006608F0000800E4
:1004B20083120313FD01F801700803190034740656
:1004C200FA00FA1BFD09FB01F41F692AF409F40A78
:1004D200F01F6D2AF009F00A70087404FA00FA1B82
:1004E200912A7408F802F00D700DF80D7408F807DF
:1004F200F00D0630FC00700DF80D74087018F8024B
:10050200701CF807F00DFC0B7C2A701CF8077B1896
:100512009F2AFD1F0034F009F00AF809F80A003496
:10052200F41F9C2AF01B992A7008F800F0018A2A0D
:10053200F001F00A0034F009FB0A722AF80A740882
:100542007802031D8A2AF801F00AF01F8A2AFF3472
:0205520008009F
:100554008312031373087706031DBD2A72087606F7
:10056400031DBD2A71087506031DBD2A7008740693
:0C0574000319031508000311080008001B
:10058000E63083160313EC0003306C078400000888
:100590006A07F1006B080318013EF2007108EA00D7
:1005A0007208EB0080307206F00080307002031D8C
:1005B000DB2A003071020318E22AF001F101F20196
:1005C000F301212B8030F00080306B067002031D98
:1005D000EB2A6A08FF3C0318132BF401F501F6011E
:1005E000F7016608F0006708F1006808F200690882
:1005F000F3009021013003180030F0007008031957
:100600000A2BFF30F000FF30F100FF30F200FF3026
:10061000F300212BFF30F000FF30F1007F30F200BB
:10062000FF30F300212B033083166C0784006A0827
:1006300080006608F0006708F1006808F2006908A9
:04064000F3000800BB
:10064400243083120313FD00FD0B262B0000080049
:1006540083120313FB017308031D77080319812B0D
:1006640072087606FA007708F3077E30031C3E2BE7
:10067400F3020318842B412BF302031C872B72080B
:10068400F8007108FC007008FD00F817F617031055
:10069400F201F101F0011830A0007D1C5B2B7408FD
:1006A400F00775080318750FF10776080318760F1D
:1006B400F207F20CF10CF00CF80CFC0CFD0C03101E
:1006C400A00B4F2BF21B6B2BF80DF00DF10DF20D5F
:1006D400F3037B1B701C7D2BF81F7D2BF00A031981
:1006E400F10A0319F20A031D7D2BF20CF10CF00C34
:1006F400F30A0319842BFA1FF2130030892B0130FB
:10070400DF20892B0230C720892B0430D32000003E
:020714000800DB
:10071600831603133C106608ED00E02183163C1493
:020726000800C9
:0E0728008316031333088A003208820008008B
:10073600831203137408003A031DB62B7508003A9A
:10074600031DB62B7608003A031DB62B7708003A30
:10075600031DB62BFF30F000FF30F1007F30F200B2
:10076600FF30F300512C8312031377080319452C2D
:1007760073080319482C720876068039FA00F217B6
:10078600F617A0017208F8007108FC007008FD0059
:100796007408FD027508031C750FFC027608031C1D
:1007A600760FF802F801FC01FD01031CE12B031092
:1007B600F20CF10CF00CF80C0130A0007708F302F3
:1007C600031CEB2B7E302007F30703184B2CF02B72
:1007D6007E302007F307031C4E2C1830FA07FD0D58
:1007E600FC0DF80DF00DF10DF20DA00D7408F002E0
:1007F6007508031C750FF1027608031C760FF202CA
:10080600760DA004201C092C7D14142C7408F00706
:1008160075080318750FF10776080318760AF207AC
:100826007D10FA031F307A05031DF22B7B1B7D1CFE
:100836003B2C0310F00DF10DF20DA00D7408F00223
:100846007508031C750FF1027608031C760FF20279
:10085600760D20040139FD070318FC0A0319F80A6E
:10086600031D3B2CF80CFC0CFD0CF30A03194B2C56
:10087600FA1FF8137808F2007C08F1007D08F000F2
:100886000030502C01305E21502C0230DF20502CDD
:0E0896000430C720502C0830D320000008008A
:1008A4008312031372087606A000F801F901730895
:1008B4007702031C752C7708FD007308F7007D0888
:1008C400F3007608FD007208F6007D08F200750852
:1008D400FD007108F5007D08F1007408FD00700842
:1008E400F4007D08F00077080319EE2C7208FA0072
:1008F400F217F61777087302F7000319A82C0830CB
:100904007702031C9E2CF7007408F9007508F400A4
:100914007608F500F60108307702031C9E2CF700D8
:100924007408F9007508F400F50108307702031C17
:100934009E2C7A08F200EE2C77080319A82C0310D9
:10094400F60CF50CF40CF90CF70BA12CA01FB52C2C
:10095400F909F409F509F609F90A0319F40A03195E
:10096400F50A0319F60A7908F80774080318740FCE
:10097400F00775080318750FF10776080318760F4A
:10098400F207A01BCE2C031CDE2CF20CF10CF00C95
:10099400F80CF30FDE2CEA2C0318E22CF809F0090A
:1009A400F109F209F80A0319F00A0319F10A031903
:1009B400F20A8030FA06E62C0130FC000421F02C07
:1009C4000230FC000421F02C0430FC006121F02CE6
:1009D4000830FC00C720F02C0030FC0000000800A8
:1009E400E63083120313F4000330740784007E306E
:1009F4000002F000F101031CF10383166A0884006D
:100A0400700880007108840A800003307407840031
:100A14007E3080006608F0006708F1006808F20084
:060A24006908F300080060
:100A2A007B14FB1F202DF201FA1FFF30F200F100A8
:0A0A3A00F000FA0DF20CFF30080086
:100A440083120313FB01730803195F2D7208FA0064
:100A5400F2178E30F302F31F622DF309F30A083004
:100A64007302031C452DF300F10D7208F100F2012D
:100A740008307302031C452DF300F10DF1017308D6
:100A8400031D03104D2D730803194D2D0310F20C93
:100A9400F10CF30B482D7B1B711C572D031C572D98
:100AA400F10A0319F20AF21B6E2DFA1F712DF209D5
:100AB400F109F10A0319F20A712DF201F101712D04
:100AC4007B14FB1F742DF201FA1F742DFF30F2000A
:100AD400F100FA0DF20C742D0130FC00762D00307B
:100AE400FC00762DFF30FC00FC0803197A2D152537
:0A0AF4007108F0007208F10008001C
:100AFE00831203139F01C0309F046F09F00070082A
:100B0E0083169F051F179F175708F000F00D7010E2
:100B1E00F00D7010F00D7010700883129F041F14EA
:100B2E0022231F151F1D9D2D0000992D1F101E081D
:100B3E00F100F00183161E08F0040030F1040800E5
:0C0B4E00831203138030F60652240800C6
:100B5A0083160313E201E3015708DE005808DF0099
:100B6A005908E0005A08E1006108FF3A031DC72D41
:100B7A006008FF3A031DC72D5F08FF3A031DC72D02
:100B8A005E08FF3A031DD12D5B08E600AA30E70094
:100B9A003E220330F000B22F0130DC00E01FE02DCE
:100BAA0080306006F0007008E000DC0A5B08840010
:100BBA002D308000DB0A0030F0006106031DEF2DA6
:100BCA0070086006031DEF2D70085F06031DEF2DE8
:100BDA005E08003A031DF82D5B08E600A830E7001E
:100BEA003E22F001B22F6108FF3A031D062E60086B
:100BFA00003A031D062E5F08003A031D062E5E0802
:100C0A00003A031D102E5B08E600AE30E7003E22D4
:100C1A005C08F000B22F0030F4000030F50000301C
:100C2A00F6007F30F7005E08F0005F08F100600808
:100C3A00F2006108F3009021013003180030F0003F
:100C4A0070080319452E83165E08F0005F08F1004C
:100C5A006008F2006108F3000030F4000030F5008B
:100C6A002030F6008230F7002A2370088316DE004F
:100C7A007108DF007208E0007308E100E303102E38
:100C8A0083160030F4000030F5002030F600823080
:100C9A00F7005E08F0005F08F1006008F2006108E2
:100CAA00F30090210130031C0030F0007008031992
:100CBA007B2E83165E08F0005F08F1006008F200E0
:100CCA006108F300CD30F400CC30F5004C30F6006A
:100CDA007B30F7002A2370088316DE007108DF00D4
:100CEA007208E0007308E100E30A452E8316FF301C
:100CFA005E05F800FF305F05F9007F306005FA00F5
:100D0A0000306105FB007808F4007908F5007A08DC
:100D1A00F6007B08F700F40DF50DF60DF70D7410CB
:100D2A0000305E05F00000305F05F100003060051C
:100D3A00F200FF306105F3007008DE007108DF0081
:100D4A007208E0007308E10074085E04F000750898
:100D5A005F04F10076086004F20077086104F3008A
:100D6A007008DE007108DF007208E0007308E10015
:100D7A007F306102F0007008DD000130E100700888
:100D8A00F4005E08F0005F08F1006008F2006108F4
:100D9A00F30074080319D82EF00DF10DF20DF30DBE
:100DAA007010FF3ECF2E7008DE007108DF00720857
:100DBA00E0007308E1006108303EF0005B0884003F
:100DCA0070088000DB0A80306306F0008030013A48
:100DDA007002031CF92E8030063AF0008030630658
:100DEA007002031CF92E002F5B0884002E3080004D
:100DFA00DB0A0130E2000630DD005D08003A031923
:100E0A005E2FE1015E08F0005F08F1006008F20061
:100E1A006108F300F00DF10DF20DF30D7010F00DF5
:100E2A00F10DF20DF30D70105E08F0075F0803185C
:100E3A005F0FF10760080318600FF20761080318D3
:100E4A00610FF3077008DE007108DF007208E00026
:100E5A007308E1005E08F0005F08F1006008F20024
:100E6A006108F300F00DF10DF20DF30D701070082A
:100E7A00DE007108DF007208E0007308E100610813
:100E8A00303EF0005B08840070088000DB0A6208CC
:100E9A00003A031D5C2FE3036308003A031D5C2F2D
:100EAA005B0884002E308000DB0A0130E200DD039B
:100EBA00022FFF305B0784000008303A031D672FBA
:100ECA00DB035E2FFF305B07840000082E3A031D08
:100EDA006F2FDB036308003A0319AE2F5B08840007
:100EEA0065308000DB0A80306306F0008030003A0B
:100EFA0070020318882F5B0884002D308000DB0AFB
:100F0A006308003CE3006308DD008030093AF00022
:100F1A0080306306700203189F2F0A30F4005D08C0
:100F2A00F00059223030F00783165B0884007008FD
:100F3A008000DB0A0A30F4005D08F00059227808C4
:100F4A00F0003030F00783165B08840070088000D8
:0C0F5A00DB0A5B0884008001F001080045
:100F660094238A110A128000840AB20A0319B30A6A
:080F7600F003031DB32F080076
:100F7E00831203137008F8007108F000F101F201FA
:100F8E00F301FB01FC019630F300FA01F01FD52F9F
:100F9E00F809F009F80A0319F00AFA177008F100B7
:0C0FAE007808F000F801F2016121080051
:1010000083120313FB01FC01FA01730803193F2843
:10101000F2178E30F302F31B102803191028422810
:10102000F309F30A08307302031C2528F300F10DBD
:101030007208F100F20108307302031C2528F10D3B
:10104000F1017308031D03102D28730803192D28BF
:101050000310F20CF10CF30B28287B1B711C3728B2
:10106000031C3728F10A0319F20AF21B4E28FA1F53
:101070005128F209F109F10A0319F20A5128F20183
:10108000F10151287B14FB1F5428F201FA1F542848
:10109000FF30F200F100FA0DF20C54280130FC0090
:1010A00056280030FC005628FF30FC00FC080319CD
:1010B0005C288A1115258A157108F0007208F10064
:0210C000080026
:1010C2008316031306118610861106128612061362
:1010D20083120611861006138612061286118A11D1
:1010E200F0208A158A11F0208A158A11F0208A15BB
:1010F2000616861506158A11EA208A1506118A1126
:10110200F0208A1506158A11EA208A1506118A111D
:10111200F0208A1506158A11EA208A1506118A110D
:10112200F0208A15861106158A11EA208A15061101
:101132008A11F0208A1506158A11EA208A150611ED
:101142000612061706158A11EA208A1506118A1157
:10115200F0208A150613861506158A11EA208A15CB
:101162000611861106158A11EA208A1506118A11BE
:10117200F0208A1506158A11EA208A1506118615AD
:1011820006158A11EA208A1506118A11F0208A159D
:10119200861106158A11EA208A1506110617861687
:1011A2000616861506158A11EA208A1506118A1175
:0A11B200F0208A1583163C14080093
:1011BC00F028803083160313D7000329C030D700E2
:1011CC0003299430D7000329D430D7000329803069
:1011DC00D7000329831603135708013A0319DF2894
:1011EC005708023A0319E4285708033A0319E72869
:1011FC005708043A0319EA28ED285803F000570859
:10120C00F0077008D7007008ED008A11E0218A15EC
:10121C0083163C10DA015A08590784000008031998
:10122C0021295A08590784000008E6008A118B23EB
:0A123C008A15DA0A11293C14080093
:10124600831603135708F4005808F5005908F600EA
:101256005A08F700F001F101F201F3018A11902119
:101266008A150130031C0030F0007008031940296C
:10127600F001F101F201F301522A83165708DB004F
:101286005808DC005908DD005A08DE000030F4007A
:101296000030F5000030F6007F30F7005708F00008
:1012A6005808F1005908F2005A08F3008A119021F3
:1012B6008A15013003180030F000700803198029E0
:1012C60083165B08F4005C08F5005D08F6005E080E
:1012D600F7000030F0000030F1000030F2007F30FF
:1012E600F3008A119B238A1570088316DB007108A8
:1012F600DC007208DD007308DE0083165B08E6007A
:101306005C08E7005D08E8005E08E900E430EA00F2
:101316008A11F2248A157008DB007108DC00720855
:10132600DD007308DE007008E6007108E700720849
:10133600E8007308E9006408EA006508EB00EB0CB6
:10134600EA0CEB136B1BEB17EB1FAE29031CAE2944
:10135600EA0A0319EB0A8A11C0228A1583120313BB
:1013660070088316DB007108DC007208DD00730864
:10137600DE000030F4000030F5000030F6007F306B
:10138600F7005708F0005808F1005908F2005A080B
:10139600F3008A1190218A15013003180030F000FD
:1013A60070080319F32983165B08F4005C08F5003E
:1013B6005D08F6005E08F7000030F0000030F1002E
:1013C6000030F2007F30F3008A119B238A157008E3
:1013D6008316DB007108DC007208DD007308DE008E
:1013E60083161430E3005B08F4005C08F5005D0822
:1013F600F6005E08F7005708F0005808F100590893
:10140600F2005A08F3008A119B238A1583165B089B
:10141600F4005C08F5005D08F6005E08F7008A1126
:1014260052248A150030F4000030F5000030F60032
:101436008030F7008A119B238A1570088316DF0017
:101446007108E0007208E1007308E2005B08F4002E
:101456005C08F5005D08F6005E08F7008A11AA220E
:101466008A150130031D0030F000700803193C2A6C
:10147600492A83165F08DB006008DC006108DD008E
:101486006208DE00E3036308031DF62983165B0882
:10149600F0005C08F1005D08F2005E08F300080049
:1014A600831203137008F8007108F000F101F201CD
:1014B600F301FB01FC019630F300FA017008F1001C
:1014C6007808F000F801F2018A1161218A150800F6
:1014D60083120313FB01FA01F9018030F800F10CC5
:1014E600F00C031C7F2A7408F90775080318750F9A
:1014F600FA070318FB0A0310F01F872A7408FA0775
:1015060075080318750FFB07FB0CFA0CF90CF80CA1
:10151600031C722A7B08F3007A08F2007908F100AE
:061526007808F000080047
:10152C006E26831203138601013083168600831204
:10153C008801831688010814881408150113811278
:10154C0001128111011181100114811761200130E8
:10155C00ED008A11E0218A150C308316ED008A11FA
:10156C00E0218A150430FC003D30FD00FD0BBC2A47
:10157C00FC0BBC2A0000000001308316D7000130A0
:10158C00D8004230D900DE200230D7000130D8001C
:10159C006130D900DE200430FC003D30FD00FD0B35
:1015AC00D52AFC0BD52A000000000330D7000130EF
:1015BC00D8005B30D900DE200430D7000130D800D1
:1015CC005530D900DE200430D7000C30D80039302B
:1015DC00D900DE200430FC003D30FD00FD0BF42A68
:1015EC00FC0BF42A000000008B170B178B160B1644
:1015FC000B118B10831281018312081CBC2B881CCD
:10160C00BC2B0819BC2B8B133C08F0003D08F100D7
:10161C0053220030F4000030F5001630F60086300E
:10162C00F7008A119B238A150030F4000030F50076
:10163C000030F6008730F7008A112A238A15003013
:10164C00F4000030F5000030F6008130F7008A110C
:10165C002A238A150030F4000030F5000030F60023
:10166C008130F7008A112A238A158030F4009630D5
:10167C00F5001830F6009730F7008A119B238A1575
:10168C007008F4007108F5007208F6007308F70092
:10169C000030F0000030F1000030F2007F30F30039
:1016AC008A119B238A157008BE007108BF0072084E
:1016BC00C0007308C1000030F4000030F500483061
:1016CC00F6008530F7008A1190218A150130031835
:1016DC000030F00070080319BB2B3E08F4003F08E3
:1016EC00F5004008F6004108F7000030F00000302B
:1016FC00F1007030F2008330F3008A1190218A15CA
:10170C00013003180030F00070080319BB2B3E08A1
:10171C008316D70083123F088316D8008312400823
:10172C008316D900831241088316DA00BD30DB0022
:10173C008A11AD258A158312BC01BD018316C20125
:10174C000B30FB002630FC005D30FD00FD0BAC2B9C
:10175C00FC0BAC2BFB0BAC2B000000000430D700B7
:10176C000630D800BD30D900DE20022B8312081CB5
:10177C00E72C8818E72C081DE72C8B1309309F00E9
:10178C00C93083169F008312B101B2019F30B300A0
:10179C008630B4001F14B501B601B701B801AF0112
:1017AC00B0013008003C031DDD2B2F08273C031C27
:1017BC009A2C2F08F000F00D70107008103E831654
:1017CC00CF000130D7008A117F258A1553220030B3
:1017DC00F4000030F5002030F6008130F7008A115B
:1017EC002A238A150030F4000030F5000030F60092
:1017FC008930F7008A119B238A150030F4000030E1
:10180C00F5002030F6008030F7008A11A7258A15E4
:10181C000230F4009A30F5000830F6007B30F70007
:10182C008A119B238A15AA30F400AA30F5003F30A8
:10183C00F6008830F7008A112A238A158A1122258E
:10184C008A1583164F088400700880007108840A7A
:10185C00800083122F08F000F00D70107008103EFD
:10186C0084000008F000840A0008F1008A11BF27E8
:10187C008A1570088316D3007108D4007208D5003D
:10188C007308D6000030F4000030F5004830F60044
:10189C008530F7005308F0005408F1005508F200A9
:1018AC005608F3008A119B238A1570088316CF0003
:1018BC007108D0007208D1007308D2000030F40017
:1018CC000030F5004830F6008530F7005308F00082
:1018DC005408F1005508F2005608F3008A119B23B6
:1018EC008A1583164F08F4005008F5005108F600CD
:1018FC005208F7008A112A238A153508F400360895
:10190C00F5003708F6003808F7008A1152248A15BA
:10191C007008B5007108B6007208B7007308B800FB
:10192C00AF0A0319B00AD72B1F100030F400003097
:10193C00F5002030F6008430F7003508F00036084A
:10194C00F1003708F2003808F3008A119B238A153E
:10195C0070088316D7007108D8007208D900730874
:10196C00DA002321831203137008B5007108B60046
:10197C007208B7007308B80070088316D700710896
:10198C00D8007208D9007308DA00B430DB008A1171
:10199C00AD258A15C3010B30FB002630FC005D30F1
:1019AC00FD00FD0BD72CFC0BD72CFB0BD72C000010
:1019BC0000000330D7000830D800B430D900DE2046
:1019CC00BC2B83120818292E881C292E081D292EA1
:1019DC008B1301309F00C93083169F008312B10115
:1019EC00B2013F30B3004230B4001F148316A4017F
:1019FC00A501A601A7018312AF01B0013008003C7C
:101A0C00031D0A2D2F08273C031CDB2D2F08F0008B
:101A1C00F00D70107008903E8316CF00D7018A111C
:101A2C007F258A1553220030F4000030F5007A30FF
:101A3C00F6008830F7008A112A238A150030F4004A
:101A4C000030F5002030F6008130F7008A112A238F
:101A5C008A150030F4000030F5000030F6008930B3
:101A6C00F7008A119B238A15002083164F088400E7
:101A7C00700880007108840A800083122F08F0001F
:101A8C00F00D70107008903E84000008F000840A7D
:101A9C000008F100532270088316D3007108D4009B
:101AAC007208D5007308D6000030F4000030F50041
:101ABC007A30F6008730F7005308F0005408F10034
:101ACC005508F2005608F3008A119B238A15003042
:101ADC00F4000030F5002030F6008130F7008A1158
:101AEC00A7258A15CD30F400CC30F5005B30F6001C
:101AFC008530F7008A112A238A1570088316CF00C7
:101B0C007108D0007208D1007308D2000030F400C4
:101B1C000030F5007A30F6008730F7005308F000FB
:101B2C005408F1005508F2005608F3008A119B2363
:101B3C008A150030F4000030F5002030F6008130BA
:101B4C00F7008A11A7258A15CD30F400CC30F500AA
:101B5C005B30F6008530F7008A112A238A1583162C
:101B6C004F08F4005008F5005108F6005208F70031
:101B7C008A112A238A1583162408F4002508F500F7
:101B8C002608F6002708F7008A1152248A157008D7
:101B9C008316A4007108A5007208A6007308A7009C
:101BAC008312AF0A0319B00A042D1F100030F40081
:101BBC000030F5002030F6008430F700831624083E
:101BCC00F0002508F1002608F2002708F3008A111E
:101BDC009B238A1570088316D7007108D8007208E9
:101BEC00D9007308DA0023218312031370088316BB
:101BFC00A4007108A5007208A6007308A70070085D
:101C0C00D7007108D8007208D9007308DA00C53003
:101C1C00DB008A11AD258A15CB010B30FB00263079
:101C2C00FC005D30FD00FD0B192EFC0B192EFB0B7F
:101C3C00192E000000000230D7000830D800C53043
:081C4C00D900DE20E72C292E4F
:101CDC002F3084003E3083120313F0002F30831614
:101CEC00B2000E30B3008A11B3278A15A0308400DD
:101CFC00083083120313F000E7308316B20007306C
:101D0C00B3008A11B3278A156D3084000230831218
:101D1C000313F000EF308316B2000730B3008A11C2
:101D2C00B3278A15A83084000A3083120313F000FD
:101D3C00DD308316B2000730B3008A11B3278A1541
:101D4C006F308400013083120313F00003308316CC
:0E1D5C00B2000030B3008A11B3278A150800C8
:020006000F34B5
:040FBA00303400349B
:080FBE004E3461344E3400345E
:080FC60049344E344634003476
:080FCE0000340034003400344B
:080FD600003400340034003443
:040FDE0000340034A7
:041C5E00003400341A
:041C62000034003416
:041C66003F34423491
:081C6A000034003400340034A2
:061C720068347A340034EE
:041C78000034003400
:081C7C00003400340034003490
:101C84004D3445344434493444344F34523420348C
:101C940045344C344534543452344F344E3449343E
:061CA40043344F3400340C
:0C1CAA0046345234453451343A3400348E
:0C1CB600493472346D3473343D34003412
:0C1CC200563472346D3473343D340034F9
:041CCE0000340034AA
:081CD20000340034003400343A
:02400E004A2F37
:00000001FF
