:1000000049EF0BF00000000000EF00F000000000DE
:0A0010000000000000000000F3D71C
:08001C000AAE029E000E120064
:100024000B820BAE1CEF00F00368026801680068E5
:080034000A360232FF0E120031
:0E003C00026A016A006A086A036A000E120076
:10004A000B840BAE30EF00F0010E036E026A016AF8
:0A005A00006A0A360232FF0E12009F
:0C0064000000000000000000000012007E
:10007000240E0C6EB50E0D6E0D2EFED70C2EFCD779
:0600800000000000120068
:0A008600530E0D6E0D2EFED7120072
:100090000A6A0350D8A40A800750D8A40A820A50DA
:1000A000D8B4ABEF00F0030AD8B464EF00F00AB0A4
:1000B0005FEF00F006AEA9EF00F0A7EF00F002AE90
:1000C000A7EF00F0A9EF00F00250800B0A6E029E2D
:1000D0000650800B069E0A18D8B475EF00F00A503F
:1000E000D8B4A7EF00F0A9EF00F00750035CD8B434
:1000F0007FEF00F0D8A09BEF00F0A1EF00F00650DA
:10010000025CD8B489EF00F0D8A09BEF00F0A1EF1B
:1001100000F00550015CD8B493EF00F0D8A09BEF3D
:1001200000F0A1EF00F00450005CD8B4ABEF00F099
:10013000D8B0A1EF00F00A52D8B4A9EF00F0A7EFB1
:1001400000F00A52D8B4A7EF00F0A9EF00F0D88071
:0E0150001200D8901200D880D884120012003D
:10015E000001B2BF02D0819E01D0818EB2BD02D00D
:10016E00819C01D0818CB2BB02D0819A01D0818A50
:10017E00B2B902D0819801D0818892B102D0818427
:10018E0001D08194818667DF8196B2B702D0819EBD
:10019E0001D0818EB2B502D0819C01D0818CB2B3D8
:1001AE0002D0819A01D0818AB2B102D0819801D059
:1001BE00818892B102D0818401D0819481864BDFF7
:0E01CE00819692A102D04DDF01D056DF1200C3
:1001DC000CB030EF01F00CA2D6EF01F00E6A000E5D
:1001EC00026447EF01F0F00E0214D8A412EF01F0F4
:1001FC00023A01380F0B02260138F00B016E003861
:10020C000F0B01260038F00B006E08380F0B002680
:10021C000838F00B086E0E84D89002BE2BEF01F05C
:10022C0008360036013602360E2A02BE2BEF01F0DC
:10023C0008360036013602360E2A02BE2BEF01F0CC
:10024C0008360036013602360E2A0E500364CCEF07
:10025C0001F0035E0BBC08AED1EF01F0D880800E2C
:10026C0008640030000E002201220222D8A0D1EF37
:10027C0001F0023201320032034AD6EF01F0D1EF25
:10028C0001F001C002F000C001F008C000F0086AE3
:10029C00000E0E8602647EEF01F0F00E0214D8A45C
:1002AC0066EF01F0023A01380F0B02260138F00B11
:1002BC00016E00380F0B01260038F00B006E0E8417
:1002CC00D89002BE2BEF01F00036013602360E2A12
:1002DC0002BE2BEF01F00036013602360E2A02BEAA
:1002EC002BEF01F00036013602360E2A2BEF01F00F
:1002FC0001C002F000C001F0006A000E0E960E88DC
:10030C000264ABEF01F0F00E0214D8A496EF01F0EA
:10031C00023A01380F0B02260138F00B016E0E84E5
:10032C00D89002BE2BEF01F0013602360E2A02BE27
:10033C002BEF01F0013602360E2A02BE2BEF01F034
:10034C00013602360E2A2BEF01F001C002F0016AD1
:10035C00000E0E860264DBEF01F0F00E0214D8A43E
:10036C00BAEF01F0023A0E84D89002BE2BEF01F0E6
:10037C0002360E2A02BE2BEF01F002360E2A02BE06
:10038C002BEF01F002360E2A2BEF01F0010E0C6E52
:10039C0056DEDEEF01F0020E0C6E3ADEDEEF01F0FF
:1003AC00040E0C6E39DEDEEF01F0080E0C6E40DE32
:0203BC0012002D
:0803BE000B6A0B86FF0E120012
:1003C600AA0E0001B06F000EB16F030EB025D96EF4
:1003D600000EB121DA6EDE50AE25016E000EAF21A1
:1003E600026E01C0AEF002C0AFF0800E0218006EC1
:1003F600800E005C02E1000E015C05E2006A016A03
:10040600026A036A3ED0800E006E800EAF19005C51
:1004160002E1AE51FF0825E2046A056A066A076A28
:10042600AAC000F0ABC001F0ACC002F0ADC003F052
:100436002CDE010ED8B0000E006E005209E0FF0E51
:10044600006EFF0E016EFF0E026EFF0E036E19D0D8
:10045600FF0E006EFF0E016E7F0E026EFF0E036E24
:1004660010D0030EB025E16E000EB121E26EAEC0D3
:10047600E6FFAAC000F0ABC001F0ACC002F0ADC010
:0404860003F012006D
:10048A0003500718D8A459EF02F002500618D8A44E
:10049A0059EF02F001500518D8A459EF02F00050A4
:0E04AA000418D8B4D8841200D894120012009E
:1004B800AA0E046E000E056E030E0424E96E000EEB
:1004C8000520EA6E7E0EEE5C006E016A000E015A8F
:1004D800AEC0E1FFAFC0E2FF00C0E6FF01C0E6FF2B
:1004E800030E0424E16E000E0520E26E7E0EE66E19
:1004F800AAC000F0ABC001F0ACC002F0ADC003F080
:020508001200DF
:10050A000450000A12E10550000A0FE10650000AE1
:10051A000CE10750000A09E1FF0E006EFF0E016EA2
:10052A007F0E026EFF0E036EA4D0086A096A075096
:10053A00D8B430EF03F00350D8B434EF03F00250CC
:10054A0006180A6E028E068E0E6A02C008F001C0F4
:10055A000CF000C00DF004500D5E0550D8A0053C0B
:10056A000C5E0650D8A0063C085E086A0C6A0D6A42
:10057A00D8A0C7EF02F0D890023201320032083216
:10058A00010E0E6E0750035ED8A0D4EF02F07E0E65
:10059A000E240326D8B038EF03F0DAEF02F07E0E0D
:1005AA000E240326D8A03CEF03F0180E0B6E0D366E
:1005BA000C3608360036013602360E360450005E16
:1005CA000550D8A0053C015E0650D8A0063C025E44
:1005DA0006340E120EA0F5EF02F00D8000EF03F0C4
:1005EA00045000260550D8B0053C01260650D8B064
:1005FA00062802260D900B2EDCEF02F026EF03F000
:10060A00D8900036013602360E360450005E055088
:10061A00D8A0053C015E0650D8A0063C025E06340E
:10062A000E10010B0D26D8B00C2AD8B4082AD8A46B
:10063A0026EF03F008320C320D32032AD8B438EF11
:10064A0003F00AAE089E0850026E0C50016E0D505F
:10065A00006E3EEF03F0010EADDE3EEF03F0020E38
:10066A00E8DC3EEF03F0040ED8DC3EEF03F0080EA0
:04067A00E7DC1200A7
:10067E000B800BAE4BEF03F0026A0AAEFF0E026E5A
:0C068E00016E006E0A360232FF0E1200F0
:0E069A0000019291AAC0B2F05DDD92811200C3
:0C06A800240E0D6E0D2EFED70000120077
:1006B4000D6A086A0050D8B4000C04180A6E0ABE09
:1006C4000D1E0B6A04AE02D0041E042A00AE02D032
:1006D400001E002A005004100A6E0ABE1FD00450E7
:1006E400085E003600340836045008260036060E2C
:1006F4000C6E00340836045000B0085E00A00826D2
:1007040000360C2EF6D700A008260BB015D00DAE7F
:10071400000C001E002A081E082A000C04AE09D092
:1007240000BE04D00050086E006AF1D7006A002AA7
:10073400000C001E0B2AD3D7082A0450085CD8A446
:0E074400E6D7086A002A00AEE2D7FF0C1200CA
:10075200AAC004F0ABC005F004C002F005C003F06B
:10076200044A052AACC000F0ADC001F00001AC4B58
:10077200AD2B00C0E9FF01C0EAFF02C0E1FF03C0E8
:10078200E2FFEECFE6FF02C0E9FF03C0EAFFEE524E
:0E07920001E0E2D7AAC000F0ABC001F01200F7
:1007A000086A096A000E0762036455EF04F00250FC
:1007B00006180A6E075003267E0ED8A0E6EF03F057
:1007C000035ED8B05AEF04F0EAEF03F0035ED8A05E
:1007D0005FEF04F0028E068E02C00EF001C00BF037
:1007E00000C00DF000500402F4CF0CF001500502DF
:1007F000F4CF00F0F3CF08F00402F3500C26F450CD
:100800000822000E00220D500502F3500C26F45071
:100810000822000E002202500402F3500826F45071
:10082000002202500502016A000E0122F350002648
:10083000F45001220D500602F3500826F450002215
:10084000026A000E012202220B500602F35000261B
:10085000F4500122000E02220E500602F35001262F
:10086000F450022202BE3DEF04F008360036013695
:1008700002360306D8B45FEF04F050EF04F0D880DE
:10088000800E08640030000E002201220222D8A04F
:1008900050EF04F0023201320032034A5AEF04F002
:1008A0000AAE029E000E62EF04F0010E1EEC00F094
:1008B00062EF04F0020E12EC00F062EF04F0040E9E
:0608C00025EC00F012001F
:1008C6000C6A0E6A0250D8A47CEF04F001C002F054
:1008D60000C001F0006A0E860250D8A47CEF04F036
:1008E60001C002F0016A0E960E880250D8B48EEF4F
:1008F60004F00E50035ED8A4D8A094EF04F0D8906C
:1009060002BE9AEF04F0003601360236032E83EF5C
:1009160004F094EF04F0010E0C6E1EEC00F09EEF56
:1009260004F0020E0C6E25EC00F09EEF04F0040EAF
:080936000C6E0EEC00F0120043
:10093E00025006180E6E086A096A0B6A03500764A5
:10094E0092EF05F006500A6E068E028E03500B6E65
:10095E000750036E000E0B64E2EF04F00B50075EBF
:10096E00D8B483EF05F0070E076451EF05F0075E6C
:10097E0000C008F001C000F002C001F0026A074E8C
:10098E0083EF05F0076426EF05F0075E00C008F060
:10099E0001C000F0016A074E83EF05F0076404EF13
:1009AE0005F0075E00C008F0006A074E83EF05F001
:1009BE000764EBEF04F00AC002F005C001F004C0BA
:1009CE0000F0086AAFEF06F0030E0764F6EF04F0CE
:1009DE00075E08380F0B086E074E83EF05F0D890B0
:1009EE000832074E83EF05F0D8900832074E83EF9A
:1009FE0005F0D890083283EF05F0030E076415EF6B
:100A0E0005F0075E08380F0B086E0038F00B08264D
:100A1E0000380F0B006E074E83EF05F0D8900032B2
:100A2E000832074E83EF05F0D89000320832074E99
:100A3E0083EF05F0D8900032083283EF05F0030EF5
:100A4E0007643DEF05F0075E08380F0B086E00389F
:100A5E00F00B082600380F0B006E0138F00B002645
:100A6E0001380F0B016E074E83EF05F0D89001325F
:100A7E0000320832074E83EF05F0D8900132003273
:100A8E000832074E83EF05F0D8900132003208325B
:100A9E0083EF05F0030E07646EEF05F0075E08386E
:100AAE000F0B086E0038F00B082600380F0B006E87
:100ABE000138F00B002601380F0B016E0238F00BD7
:100ACE00012602380F0B026E074E83EF05F0D89009
:100ADE000232013200320832074E83EF05F0D89011
:100AEE000232013200320832074E83EF05F0D89001
:100AFE000232013200320832096A000E0EAE77EF72
:100B0E0006F0081E001E011E021E082A00220122E7
:100B1E00022277EF06F00750D8A498EF05F0AFEF5A
:100B2E0006F0096A02C00AF0028E068E0750035CB8
:100B3E00076ED8B46AEF06F0070E076438EF06F0BA
:100B4E00075E0450096E0550046E0650056E066A67
:100B5E00074E6AEF06F0070E07640DEF06F0075E0C
:100B6E000450096E0550046E056A074E6AEF06F0D2
:100B7E00070E0764EBEF05F0075E0450096E046A7A
:100B8E00074E6AEF06F0070E0764D2EF05F00AC0B3
:100B9E0002F0AFEF06F0030E0764DDEF05F0075E1F
:100BAE0009380F0B096E074E6AEF06F0D89009321E
:100BBE00074E6AEF06F0D8900932074E6AEF06F03C
:100BCE00D89009326AEF06F0030E0764FCEF05F0C9
:100BDE00075E09380F0B096E0438F00B092604382E
:100BEE000F0B046E074E6AEF06F0D89004320932EE
:100BFE00074E6AEF06F0D89004320932074E6AEFBC
:100C0E0006F0D890043209326AEF06F0030E07643C
:100C1E0024EF06F0075E09380F0B096E0438F00B4F
:100C2E00092604380F0B046E0538F00B0426053820
:100C3E000F0B056E074E6AEF06F0D89005320432A0
:100C4E000932074E6AEF06F0D890053204320932A7
:100C5E00074E6AEF06F0D8900532043209326AEF79
:100C6E0006F0030E076455EF06F0075E09380F0B0A
:100C7E00096E0438F00B092604380F0B046E053884
:100C8E00F00B042605380F0B056E0638F00B052603
:100C9E0006380F0B066E074E6AEF06F0D890063236
:100CAE00053204320932074E6AEF06F0D89006324A
:100CBE00053204320932074E6AEF06F0D89006323A
:100CCE00053204320932086A000E0EAE77EF06F0D6
:100CDE00091E041E051E061E092A042205220622CE
:100CEE000950082604500022055001220650022207
:100CFE000EBE8EEF06F0D8A09DEF06F00232013246
:100D0E0000320832033E9DEF06F0A9EF06F0D8B090
:100D1E00A3EF06F0000E081E001E011E021E082A7A
:100D2E000022012202220A7EA3EF06F0010E0C6EB3
:100D3E00EEEC00F0B1EF06F0020E0C6EEEEC00F0F1
:100D4E00B1EF06F0040E0C6E12EC00F0B1EF06F0EF
:060D5E00000E0C6E1200F5
:100D64000900F5CFE6FF0006FBE10106F9E11200F8
:100D740010D0800E00019B6F1AD0C00E9B6F17D04D
:100D8400940E9B6F14D0D40E9B6F11D0800E9B6F6A
:100D94000ED000019B51010AECE09B51020AEDE0E8
:100DA4009B51030AEDE09B51040AEDE0EFD79C054B
:100DB400006E9B51002600C09BF000C0B2F0AFEC67
:100DC40000F092919F6B9F519D25E96E000E9E212C
:100DD400EA6EEE520BE09F519D25E96E000E9E21B6
:100DE400EA6EEECFAAF057DC9F2BEDD7928112006A
:100DF400939693949398939A939C939E81968194BB
:100E0400819E819C819A819838EC00F038EC00F046
:100E140038EC00F0818A8188818632EC00F081967A
:100E240038EC00F0818632EC00F0819638EC00F06A
:100E3400818632EC00F0819638EC00F0819881864E
:100E440032EC00F0819638EC00F0818632EC00F050
:100E54008196819A818E818632EC00F0819638ECFD
:100E640000F0819E8188818632EC00F08196819821
:100E7400818632EC00F0819638EC00F0818632EC09
:100E840000F081968188818632EC00F0819638ECFE
:100E940000F08198818632EC00F08196818E818CFD
:100EA400818A8188818632EC00F0819638EC00F0EA
:060EB40000019281120012
:100EBA000B6A0350D8B4A3EF07F002500A6E028EF1
:100ECA008E0E035E03AEA7EF07F0036C080E035CF9
:100EDA00D8A082EF07F0036E013602C001F0026A61
:100EEA00080E035CD8A082EF07F0036E0136016A90
:100EFA000350D8A4D8908CEF07F00350D8B48CEFE5
:100F0A0007F0D89002320132032E86EF07F00BBCAD
:100F1A0001A099EF07F0D8A099EF07F0012AD8B4F9
:100F2A00022A02BEB6EF07F00AAEBCEF07F0021EB5
:100F3A00011E012AD8B4022ABCEF07F0026A016A2C
:100F4A00BCEF07F00B800BAEC0EF07F0026A0AAEE7
:100F5A00C0EF07F0FF0E026E016E0A360232C0EFD2
:100F6A0007F0010E0C6E3FEC03F0C2EF07F0000E23
:100F7A000C6EC2EF07F0FF0E0C6E0150006E0250AD
:040F8A00016E1200E2
:100F8E0000C008F00150006E016A026A036A0B6A23
:100F9E000C6A016A026A036A960E036E0A6A00AE52
:100FAE00DFEF07F0081E001E082AD8B4002A0A8EAA
:100FBE0000C001F008C000F0086A026A7DDC120071
:100FCE009BC004F09CC005F09DC006F09EC007F0CB
:100FDE00006A016A026A036A48EC00F0000ED8B09B
:100FEE00010E006E005205E0006A016A026A036A91
:100FFE00F9D09BC09FF09CC0A0F09DC0A1F09EC0F8
:10100E00A2F0000E046E000E056E000E066E7F0E30
:10101E00076E9BC000F09CC001F09DC002F09EC008
:10102E0003F048EC00F0010ED8B0000E006E005236
:10103E001AE09FC004F0A0C005F0A1C006F0A2C047
:10104E0007F0000E006E000E016E000E026E7F0E97
:10105E00036E85EC02F000C09FF001C0A0F002C04C
:10106E00A1F003C0A2F09FC0AAF0A0C0ABF0A1C037
:10107E00ACF0A2C0ADF0A80E0001AE6F000EAF6FC7
:10108E005CEC02F000C09FF001C0A0F002C0A1F025
:10109E0003C0A2F000C0AAF001C0ABF002C0ACF0D9
:1010AE0003C0ADF0A8C0AEF0A9C0AFF0AF33AE3301
:1010BE00AF9FAFBDAF8FAFAF03D002E3AE4BAF2B41
:1010CE00E3EC01F000C09FF001C0A0F002C0A1F05F
:1010DE0003C0A2F0000E046E000E056E000E066E2A
:1010EE007F0E076E9BC000F09CC001F09DC002F009
:1010FE009EC003F048EC00F0010ED8B0000E006E5A
:10110E0000521AE09FC004F0A0C005F0A1C006F086
:10111E00A2C007F0000E006E000E016E000E026EF1
:10112E007F0E036E85EC02F000C09FF001C0A0F0B0
:10113E0002C0A1F003C0A2F0140E0001A76F9FC061
:10114E0004F0A0C005F0A1C006F0A2C007F09BC03D
:10115E0000F09CC001F09DC002F09EC003F085EC33
:10116E0002F09FC004F0A0C005F0A1C006F0A2C01E
:10117E0007F09FEC04F0000E046E000E056E000EDC
:10118E00066E800E076E85EC02F000C0A3F001C063
:10119E00A4F002C0A5F003C0A6F09FC004F0A0C04A
:1011AE0005F0A1C006F0A2C007F045EC02F0010E5A
:1011BE00D8A4000E006E005201E00CD0A3C09FF028
:1011CE00A4C0A0F0A5C0A1F0A6C0A2F00001A70780
:1011DE00A753B5E19FC000F0A0C001F0A1C002F07E
:0611EE00A2C003F0120094
:1011F4000001A76BA86B9BC0A3F09CC0A4F09DC08A
:10120400A5F09EC0A6F0A651FF0A08E1A551FF0A69
:1012140005E1A451FF0A02E1A351FF0A0DE19FC0B9
:10122400AAF0A0C0ABF02D0EAC6F000EAD6FA9EC10
:1012340003F0030E006EF1D1010EA16FA5AF0ED025
:10124400800EA519006E00C0A5F0A12B9FC0E1FF80
:10125400A0C0E2FF2D0EE66E9F4BA02B000E006E89
:10126400A61908E10050A51905E10050A41902E1EE
:10127400A351000A0CE19FC0AAF0A0C0ABF0310E4C
:10128400AC6F000EAD6FA9EC03F0006AC6D1A65195
:10129400FF0A08E1A551000A05E1A451000A02E190
:1012A400A351000A0DE19FC0AAF0A0C0ABF0290E23
:1012B400AC6F000EAD6FA9EC03F0A1C000F0ADD18E
:1012C400000E046E000E056E000E066E7F0E076E95
:1012D400A3C000F0A4C001F0A5C002F0A6C003F0B2
:1012E40048EC00F0010ED8B0000E006E00521CE075
:1012F400A3C000F0A4C001F0A5C002F0A6C003F092
:10130400000E046E000E056E200E066E820E076E31
:10131400D0EC03F000C0A3F001C0A4F002C0A5F01B
:1013240003C0A6F0A807CCD7000E046E000E056E0D
:10133400200E066E820E076EA3C000F0A4C001F05A
:10134400A5C002F0A6C003F048EC00F0000ED8B02F
:10135400010E006E00521CE0A3C000F0A4C001F016
:10136400A5C002F0A6C003F0CD0E046ECC0E056E2F
:101374004C0E066E7B0E076ED0EC03F000C0A3F09B
:1013840001C0A4F002C0A5F003C0A6F0A82BCCD7DE
:10139400FF0EA315086EFF0EA415096E7F0EA5158A
:1013A4000A6E000EA6150B6E08C004F009C005F005
:1013B4000AC006F00BC007F0043604900536063662
:1013C4000736000EA315006E000EA415016E000E64
:1013D400A515026EFF0EA615036E00C0A3F001C092
:1013E400A4F002C0A5F003C0A6F00450A311006E3F
:1013F4000550A411016E0650A511026E0750A611E6
:10140400036E00C0A3F001C0A4F002C0A5F003C0A5
:10141400A6F07F0EA65D006E00C0A2F0010EA66FBE
:1014240000C004F0A3C000F0A4C001F0A5C002F005
:10143400A6C003F0045007E00036009001360236DF
:101444000336FF0FF8D700C0A3F001C0A4F002C018
:10145400A5F003C0A6F09FC0E1FFA0C0E2FFA65123
:10146400300FE66E9F4BA02B800EA819006E800EE5
:10147400010A005C08E3800E060A006E800EA819BB
:10148400005C01E30AD09FC0E1FFA0C0E2FF2E0E82
:10149400E66E9F4BA02B010EA76F060EA26FA25102
:1014A400000A54E0A66BA3C000F0A4C001F0A5C0DC
:1014B40002F0A6C003F0003600900136023603366F
:1014C40000360090013602360336A3510026A4519B
:1014D4000122A5510222A651032200C0A3F001C09B
:1014E400A4F002C0A5F003C0A6F0A3C000F0A4C0FD
:1014F40001F0A5C002F0A6C003F00036009001364A
:101504000236033600C0A3F001C0A4F002C0A5F067
:1015140003C0A6F09FC0E1FFA0C0E2FFA651300FB8
:10152400E66E9F4BA02BA751000A0EE1A807A85115
:10153400000A0AE19FC0E1FFA0C0E2FF2E0EE66EA2
:101544009F4BA02B010EA76FA207A9D7FF0E9F25C3
:10155400E96EFF0EA021EA6EEE50300A05E1010E9D
:101564009F5F000EA05BF2D7FF0E9F25E96EFF0E72
:10157400A021EA6EEE502E0A04E1010E9F5F000ED8
:10158400A05BA851000A43E09FC0E1FFA0C0E2FFB6
:10159400650EE66E9F4BA02B800EA819006E800E80
:1015A400000A005C0BE29FC0E1FFA0C0E2FF2D0E29
:1015B400E66E9F4BA02BA8510008A86FA8C0A2F00C
:1015C400800E090A006E800EA819005C0FE20A0E54
:1015D400046EA2C000F05AEC03F09FC0E1FFA0C06B
:1015E400E2FF0050300FE66E9F4BA02B0A0E046EF4
:1015F400A2C000F05AEC03F008C000F09FC0E1FF65
:10160400A0C0E2FF0050300FE66E9F4BA02B9FC09E
:0C161400E1FFA0C0E2FFE66A006A1200DD
:10162000C26A391C006E0050C116070EC012C08E6F
:101630009BC000F000360090003600900050C212AF
:10164000C28054EC03F0C282C2A201D0FDD7C4CF45
:1016500001F0006AC3500012000E0112C290120085
:101660000050086E0150006E016A026A036A0B6A3C
:101670000C6A960E036E0A6A00C001F008C000F002
:0A168000086A026A63EC04F012002D
:08168A00067E9FEC04F0120043
:10169200C1EC0CF0FF0E926E936A816A9380938282
:1016A200C26AF00EC16EFAEC06F0A30E0C6E550E75
:1016B2000D6E0D2EFED70C2EFCD7010EB26FAFECC5
:1016C20000F0A30E0C6E550E0D6E0D2EFED70C2ED5
:1016D200FCD70C0EB26FAFEC00F0A30E0C6E550EE1
:1016E2000D6E0D2EFED70C2EFCD7010E9B6F010E38
:1016F2009C6F330E9D6F000E9E6FBAEC06F0A30E28
:101702000C6E550E0D6E0D2EFED70C2EFCD7020E52
:101712009B6F010E9C6F1B0E9D6F000E9E6FBAECAD
:1017220006F0216A226A236A246A800E256E4F0E11
:10173200266E430E276E8F0E286EC280156A166AB9
:10174200176A186A196A1A6A000E006E1A50005C4B
:1017520002E119502708D8A0B2D0000119C000F048
:101762001AC001F00036009001363A0E0024936F41
:10177200000E0120946F9B6B52DF71DF000E046E2E
:10178200000E056E200E066E810E076ED0EC03F081
:10179200000E046E000E056E000E066E890E076EB8
:1017A20085EC02F0000E046E000E056E200E066E31
:1017B200800E076E69DF020E046E9A0E056E080E29
:1017C200066E7B0E076E85EC02F0AA0E046EAA0E60
:1017D200056E3F0E066E880E076ED0EC03F05DECD0
:1017E20007F093C0E1FF94C0E2FF00C0E6FF01C032
:1017F200E6FF19C000F01AC001F000360090013671
:101802003A0E0024E96E000E0120EA6EEECF00F0DF
:10181200EECF01F0C7EC07F000C097F001C098F0DE
:1018220002C099F003C09AF0000E046E000E056E1D
:10183200480E066E850E076E97C000F098C001F044
:1018420099C002F09AC003F085EC02F000C093F058
:1018520001C094F002C095F003C096F0000E046E31
:10186200000E056E480E066E850E076E97C000F0DC
:1018720098C001F099C002F09AC003F085EC02F022
:1018820093C004F094C005F095C006F096C007F02E
:10189200D0EC03F015C004F016C005F017C006F036
:1018A20018C007F09FEC04F000C015F001C016F05C
:1018B20002C017F003C018F0194A1A2A45D7C2907D
:1018C200000E046E000E056E200E066E840E076E6C
:1018D20015C000F016C001F017C002F018C003F0E6
:1018E20085EC02F000C09BF001C09CF002C09DF0AC
:1018F20003C09EF0E7EC07F000C015F001C016F03F
:1019020002C017F003C018F000C09BF001C09CF0A9
:1019120002C09DF003C09EF08A0E00019F6F000E70
:10192200A06F67DC906B060E0B6E130E0C6EAD0E85
:101932000D6E0D2EFED70C2EFCD70B2EFAD7000003
:101942000000020E9B6F060E9C6F8A0E9D6F000EAA
:0A1952009E6FBAEC06F0E5D6FFD751
:1019820010EE15F0250E006E010E016E5C0EF66E65
:0E199200190EF76E000EF86EB2EC06F01200A1
:04195C000000000087
:02196000000085
:0619620049726D733D00A7
:04196800000000007B
:04196C0000007A8875
:04197000494E460096
:041974004E614E0072
:0219780030003D
:06197A004920524D53000C
:011980003036
:020000040030CA
:0E000000040E1F1EFF8381FF0FC00FE00F4094
:00000001FF
